{
  "_format": "hh-sol-artifact-1",
  "contractName": "BuyDesign",
  "sourceName": "contracts/BuyDesign.sol",
  "abi": [
    {
      "inputs": [],
      "stateMutability": "nonpayable",
      "type": "constructor"
    },
    {
      "inputs": [
        {
          "internalType": "string",
          "name": "details",
          "type": "string"
        }
      ],
      "name": "initOrder",
      "outputs": [],
      "stateMutability": "payable",
      "type": "function"
    },
    {
      "inputs": [],
      "name": "owner",
      "outputs": [
        {
          "internalType": "address",
          "name": "",
          "type": "address"
        }
      ],
      "stateMutability": "view",
      "type": "function"
    },
    {
      "inputs": [],
      "name": "viewOrder",
      "outputs": [
        {
          "internalType": "string",
          "name": "",
          "type": "string"
        }
      ],
      "stateMutability": "view",
      "type": "function"
    }
  ],
  "bytecode": "0x608060405234801561001057600080fd5b5033600160006101000a81548173ffffffffffffffffffffffffffffffffffffffff021916908373ffffffffffffffffffffffffffffffffffffffff16021790555061070d806100616000396000f3fe6080604052600436106100345760003560e01c80631766720b14610039578063497a23b6146100555780638da5cb5b14610080575b600080fd5b610053600480360381019061004e91906104f0565b6100ab565b005b34801561006157600080fd5b5061006a6100e6565b60405161007791906105c1565b60405180910390f35b34801561008c57600080fd5b5061009561020b565b6040516100a29190610624565b60405180910390f35b80600090805190602001906100c19291906102f3565b506100e36040518060600160405280603781526020016106a160379139610231565b50565b606061017b600080546100f89061066e565b80601f01602080910402602001604051908101604052809291908181526020018280546101249061066e565b80156101715780601f1061014657610100808354040283529160200191610171565b820191906000526020600020905b81548152906001019060200180831161015457829003601f168201915b5050505050610231565b600080546101889061066e565b80601f01602080910402602001604051908101604052809291908181526020018280546101b49061066e565b80156102015780601f106101d657610100808354040283529160200191610201565b820191906000526020600020905b8154815290600101906020018083116101e457829003601f168201915b5050505050905090565b600160009054906101000a900473ffffffffffffffffffffffffffffffffffffffff1681565b6102c78160405160240161024591906105c1565b6040516020818303038152906040527f41304fac000000000000000000000000000000000000000000000000000000007bffffffffffffffffffffffffffffffffffffffffffffffffffffffff19166020820180517bffffffffffffffffffffffffffffffffffffffffffffffffffffffff83818316178352505050506102ca565b50565b60008151905060006a636f6e736f6c652e6c6f679050602083016000808483855afa5050505050565b8280546102ff9061066e565b90600052602060002090601f0160209004810192826103215760008555610368565b82601f1061033a57805160ff1916838001178555610368565b82800160010185558215610368579182015b8281111561036757825182559160200191906001019061034c565b5b5090506103759190610379565b5090565b5b8082111561039257600081600090555060010161037a565b5090565b6000604051905090565b600080fd5b600080fd5b600080fd5b600080fd5b6000601f19601f8301169050919050565b7f4e487b7100000000000000000000000000000000000000000000000000000000600052604160045260246000fd5b6103fd826103b4565b810181811067ffffffffffffffff8211171561041c5761041b6103c5565b5b80604052505050565b600061042f610396565b905061043b82826103f4565b919050565b600067ffffffffffffffff82111561045b5761045a6103c5565b5b610464826103b4565b9050602081019050919050565b82818337600083830152505050565b600061049361048e84610440565b610425565b9050828152602081018484840111156104af576104ae6103af565b5b6104ba848285610471565b509392505050565b600082601f8301126104d7576104d66103aa565b5b81356104e7848260208601610480565b91505092915050565b600060208284031215610506576105056103a0565b5b600082013567ffffffffffffffff811115610524576105236103a5565b5b610530848285016104c2565b91505092915050565b600081519050919050565b600082825260208201905092915050565b60005b83811015610573578082015181840152602081019050610558565b83811115610582576000848401525b50505050565b600061059382610539565b61059d8185610544565b93506105ad818560208601610555565b6105b6816103b4565b840191505092915050565b600060208201905081810360008301526105db8184610588565b905092915050565b600073ffffffffffffffffffffffffffffffffffffffff82169050919050565b600061060e826105e3565b9050919050565b61061e81610603565b82525050565b60006020820190506106396000830184610615565b92915050565b7f4e487b7100000000000000000000000000000000000000000000000000000000600052602260045260246000fd5b6000600282049050600182168061068657607f821691505b6020821081141561069a5761069961063f565b5b5091905056fe4f72646572206d6164652c207468616e6b20796f7520666f7220796f757220696e74657265737420696e206f7572207365727669636521a2646970667358221220ae5509956e2fba6ed41ed5c9b8f4c569fa5cbee3fa7063d8b88a694cc23ca10a64736f6c63430008080033",
  "linkReferences": {},
  "deployedLinkReferences": {}
}